:03000B0002000EE2
:0F000E00C0E0C0D075D000C000C004C005C0075E
:10001D00C28C0509E50970020508758A18758CFCF6
:10002D00C3E50994F4E5089401402D7508007509A0
:10003D0000E50BFD7C00700DAF907801EF0880019D
:10004D0023D8FDF590ED64014C700DAF907801EF64
:0A005D0008800103D8FDF590D28C55
:0D006700D007D005D004D000D0D0D0E032BA
:10010F007590FE1201341200748F0AE50A60F764CD
:10011F000170F3050BC3E50B94027480948040E6E5
:05012F00E4F50B80E186
:100134005389F0438901758A18758CFCC28DD28C61
:07014400D2A9D2AFC2B9221B
:10007400E4F50E20B4147FE87E0312015730B4FD7A
:100084007FE87E03120157750E0120B5147FE87EC8
:100094000312015730B5FD7FE87E03120157750E38
:1000A4000220B6147FE87E0312015730B6FD7FE8C4
:1000B4007E03120157750E0320B7147FE87E0312E6
:1000C400015730B7FD7FE87E03120157750E04AF68
:0100D4000E1D
:0100D5002208
:0B015700EF1FAC0670011E4C70F6227A
:1000D6007590FE7F507EC3120157E4F50CF50DAF07
:1000E6000DA8077401088002C333D8FCF4F5907F8D
:1000F600507EC3120157050DE50D7002050CC39421
:0901060008E50C940040D880D1FA
:0300000002014BAF
:0C014B00787FE4F6D8FD75810E02010FEC
:00000001FF
