:0300000002026990
:0C026900787FE4F6D8FD75813A0202B0FF
:10036D0006350000000000000F26039F250D99495A
:09037D00411F0109FDFF61F5C5F6
:0F038700758901758C3C758AB075A882D28C225D
:03000B00020321CC
:10032100C0E0C0D0758C3C758AB0E525B40A06D210
:1003310000C2B6D2B70525E525B41409D201752549
:0A03410000C2B7D2B6D0D0D0E0322F
:0C039600E4FFE4FE0EBE64FC0FBF04F6A2
:0103A2002238
:1002F500C2B2E4FFE4FE74352FF8E6FD30E004D227
:10030500B08002C2B0C2B1D2B174352FF8EDC313BB
:0B031500F60EBE08E10FBF06DBD2B2FF
:0103200022BA
:1001710020A0100523E523D394035003020268E471
:10018100F5232220A167E523B4011C740A2524F577
:1001910024D3648094975003020268E52475F00A21
:1001A10012034B85F02422E523B4021C740A252294
:1001B100F522D3648094BB5003020268E52275F0F6
:1001C1000A12034B85F02222E52364036003020235
:1001D10068740A2521F521D3648094BB500302027F
:1001E10068E52175F00A12034B85F0212220A277E0
:1001F100E5236401703C0524E52475F00A12034BE4
:10020100AFF0EF700674F62524F524E52475F00AA5
:1002110012034BFF6402704FE52475F00A12034B81
:10022100AEF0D3EE64809483403DEF75F00AA4F5FF
:100231002422E523B402160522E52275F00A1203F1
:100241004BAFF0EF702174F62522F52222E523B49D
:1002510003150521E52175F00A12034BAFF0EF708C
:080261000674F62521F52122A7
:10000E0012038775240CE4F522F521F5230200DB9B
:10001E0030A00630A10320A2162002131203963040
:10002E00A00630A10320A212D202120171800B3061
:10003E00A00830A10530A202C2022001030200E195
:10004E00C201E523702A0521D3E521648094BB40CB
:10005E001FE4F5210522D3E522648094BB4011E410
:10006E00F5220524D3E524648094974003E4F52417
:10007E00E52175F00A12034BAFF074262FF8E6F562
:10008E0035E52175F00A12034B2426F8E6F536E520
:10009E002275F00A12034BAFF074262FF8E6F537EF
:1000AE00E52275F00A12034B2426F8E6F538E5240E
:1000BE0075F00A12034BAFF074262FF8E6F539E50A
:1000CE002475F00A12034B2426F8E6F53A1202F5CF
:1000DE0002001E20000302001EC200E52175F00A78
:1000EE0012034BAFF074262FF8E6F535E52175F0C7
:1000FE000A12034B2426F8E6F536E52275F00A12AD
:10010E00034BAFF074262FF8E6F537E52275F00AAB
:10011E0012034B2426F8E6F538E52475F00A12038F
:10012E004BAFF074262FF8E6F539E52475F00A1278
:10013E00034B2426F8E6F53AE523B40108753AFF99
:10014E007539FF8018E523B402087538FF7537FF3F
:10015E00800BE523B403067536FF7535FF1202F5E5
:03016E0002001E6E
:1002750002000EE493A3F8E493A34003F68001F291
:1002850008DFF48029E493A3F85407240CC8C3338A
:10029500C4540F4420C8834004F456800146F6DF59
:1002A500E4800B010204081020408090036DE47E79
:1002B500019360BCA3FF543F30E509541FFEE4934E
:1002C500A360010ECF54C025E060A840B8E493A315
:1002D500FAE493A3F8E493A3C8C582C8CAC583CA40
:1002E500F0A3C8C582C8CAC583CADFE9DEE780BEF8
:010386000076
:10034B00C2D530F707B2D563F0FF05F030E70CB23A
:10035B00D5F4048463F0FF05F080018430D502F4FA
:02036B0004226A
:00000001FF
