:0400FA0002080000F8
:10008F00AEA05306F0EE64F0602CE5094508702B26
:10009F00F508750901EE2490601824C0601024E063
:1000AF00600824F070157F0180117F02800D7F039F
:0B00BF0080097F048005E4F508F509C6
:0100CA002213
:1000CB00C290C291C292C29312008F7E00EE70F862
:1000DB00EF24FE600E14600F146010240370E9B25D
:0F00EB009080E5B29180E1B29280DDB29380D92E
:03000000020003F8
:0C000300787FE4F6D8FD75810902004A00
:10000F000200CBE493A3F8E493A34003F68001F23C
:10001F0008DFF48029E493A3F85407240CC8C333F2
:10002F00C4540F4420C8834004F456800146F6DFC1
:10003F00E4800B01020408102040809000FAE47E57
:10004F00019360BCA3FF543F30E509541FFEE493B6
:10005F00A360010ECF54C025E060A840B8E493A37D
:10006F00FAE493A3F8E493A3C8C582C8CAC583CAA8
:10007F00F0A3C8C582C8CAC583CADFE9DEE780BE60
:0100FE000001
:00000001FF
