:10028800438901758CD8758AF0D2A9D2AFD28C2255
:1001F500E51D75F00A84FD7C007F01120104E51DF3
:1002050075F00A84E5F0FD7C007F0212015EE51EB3
:1002150075F00A84FD7C007F03120104E51E75F06C
:0C0225000A84E5F0FD7C007F0402010467
:1002310020B4187FE87E031202AF20B409308C0489
:10024100C28C8002D28C20B41B80FB20B5167FE8C3
:100251007E031202AF20B509C28CE4F51CF51EF530
:050261001D30B5FD2277
:0B02A4001202881201F512023180F8EE
:03000B000201B837
:1001B800C0E0C0D0758CD8758AF0051CC3E51C94C6
:1001C80064748094804021751C00051EE51E943CD3
:1001D800748094804012751E00051DE51D943C74C2
:0D01E8008094804003751D00D0D0D0E0321F
:10026600C0F9A4B0999282F880908883C6A1868E40
:10027600004079243019120278001008034621063E
:020286000E0068
:060104008F088C098D0A32
:10010A00780B7C007D007BFF7A0279667E007F1186
:10011A001200DEE50824FE601014601714601E2425
:10012A00037022C2A4D2A58004D2A4C2A5D2A6D2A8
:10013A00A78012D2A4D2A5C2A6D2A78008D2A4D2DE
:10014A00A5D2A6C2A7740B250AF8E6F5807F647EBD
:04015A00000202AFEE
:06015E008F088C098D0AD8
:10016400780B7C007D007BFF7A0279777E007F111B
:100174001200DEE50824FE601014601714601E24CB
:10018400037022C2A4D2A58004D2A4C2A5D2A6D24E
:10019400A78012D2A4D2A5C2A6D2A78008D2A4D284
:1001A400A5D2A6C2A7740B250AF8E6F5807F647E63
:0401B400000202AF94
:0B02AF00EF1FAC0670011E4C70F62221
:0300000002029861
:0C029800787FE4F6D8FD75811E0202A4F8
:10000E00E709F608DFFA8046E709F208DFFA803ED4
:10001E0088828C83E709F0A3DFFA8032E309F608C1
:10002E00DFFA8078E309F208DFFA807088828C8329
:10003E00E309F0A3DFFA806489828A83E0A3F608DD
:10004E00DFFA805889828A83E0A3F208DFFA804CB7
:10005E0080D280FA80C680D4806980F2803380108E
:10006E0080A680EA809A80A880DA80E280CA8033F7
:10007E0089828A83ECFAE493A3C8C582C8CCC5836F
:10008E00CCF0A3C8C582C8CCC583CCDFE9DEE7803F
:10009E000D89828A83E493A3F608DFF9ECFAA9F0BE
:1000AE00EDFB2289828A83ECFAE0A3C8C582C8CC14
:1000BE00C583CCF0A3C8C582C8CCC583CCDFEADE2D
:1000CE00E880DB89828A83E493A3F208DFF980CC8F
:1000DE0088F0EF60010E4E60C388F0ED2402B40488
:1000EE000050B9F582EB2402B4040050AF2323452F
:0600FE00822390005E73F6
:00000001FF
