:0400DC000208000016
:1000C8001200B2E509643145087004F59080F475B2
:0400D80090FF80EF26
:03002300020003D5
:10000300C0D075D000C007AF997508008F09C2989A
:0D0013008509993099FDC299D007D0D032EF
:1000B200758920758DFD758BFDC29FD29ED29CD213
:0600C2008ED2AFD2AC2289
:03000000020026D5
:0C002600787FE4F6D8FD75810902006DBA
:100032000200C8E493A3F8E493A34003F68001F21C
:1000420008DFF48029E493A3F85407240CC8C333CF
:10005200C4540F4420C8834004F456800146F6DF9E
:10006200E4800B01020408102040809000DCE47E52
:10007200019360BCA3FF543F30E509541FFEE49393
:10008200A360010ECF54C025E060A840B8E493A35A
:10009200FAE493A3F8E493A3C8C582C8CAC583CA85
:1000A200F0A3C8C582C8CAC583CADFE9DEE780BE3D
:0100E000001F
:00000001FF
