:100003003F065B4F666D7D077F6F777C395E797145
:0100130000EC
:0B026D00EF1FAC0670011E4C70F62263
:0301F400FD7C008F
:0601F7008F088C098D0A3F
:1001FD00780B7C007D007BFF7A0079037E007F11F8
:10020D001200EEE50824FE601014601714601E2421
:10021D00037022C2A4D2A58004D2A4C2A5D2A6D2B4
:10022D00A78012D2A4D2A5C2A6D2A78008D2A4D2EA
:10023D00A5D2A6C2A7740B250AF8E6F5807F647EC9
:04024D000002026D3C
:10025100758910758DFF758B38D2AFD2ABD28E22D6
:10016900C2A1C2A3D2A1C2A130A2FDD2A385901C73
:10017900C2A3751D00851C1EAE1DAF1E7C037DE844
:10018900120114EF2420F520AE1DAF1E7C037DE87B
:100199001201147E007F64CFCDCFCECCCE120114D4
:1001A9008F21AE1DAF1E7C007D641201147E007F7D
:1001B9000ACFCDCFCECCCE1201148F22AE1DAF1EE9
:1001C9007C007D0A1201148D23E5207F011201F4C0
:1001D900E5217F021201F4E522FD7C007F03120173
:0B01E900F7E523FD7C007F040201F716
:03001B000202835B
:09028300758DFF758B38B2A032B5
:0B02780012025112016912016980FBA3
:0300000002026198
:0C026100787FE4F6D8FD75812202027857
:10001E00E709F608DFFA8046E709F208DFFA803EC4
:10002E0088828C83E709F0A3DFFA8032E309F608B1
:10003E00DFFA8078E309F208DFFA807088828C8319
:10004E00E309F0A3DFFA806489828A83E0A3F608CD
:10005E00DFFA805889828A83E0A3F208DFFA804CA7
:10006E0080D280FA80C680D4806980F2803380107E
:10007E0080A680EA809A80A880DA80E280CA8033E7
:10008E0089828A83ECFAE493A3C8C582C8CCC5835F
:10009E00CCF0A3C8C582C8CCC583CCDFE9DEE7802F
:1000AE000D89828A83E493A3F608DFF9ECFAA9F0AE
:1000BE00EDFB2289828A83ECFAE0A3C8C582C8CC04
:1000CE00C583CCF0A3C8C582C8CCC583CCDFEADE1D
:1000DE00E880DB89828A83E493A3F208DFF980CC7F
:1000EE0088F0EF60010E4E60C388F0ED2402B40478
:1000FE000050B9F582EB2402B4040050AF2323451F
:06010E00822390006E73D5
:10011400BC000BBE0029EF8DF084FFADF022E4CCCF
:10012400F875F008EF2FFFEE33FEEC33FCEE9DEC98
:10013400984005FCEE9DFE0FD5F0E9E4CEFD22EDDE
:10014400F8F5F0EE8420D21CFEADF075F008EF2F28
:10015400FFED33FD4007985006D5F0F222C398FD19
:050164000FD5F0EA22B6
:00000001FF
