:0300000002000EED
:0C000E00787FE4F6D8FD758120020055D3
:0C00D8000A0940F92430191202F8001047
:03000B000200BD33
:1000BD00C0E0C0D0758C3C758AB00508E508B41455
:0B00CD0005750800D200D0D0D0E03252
:10009A0075890175A882D28C3000FDC200740925C9
:1000AA0013F8E6F5A00513E513D3940940EAE4F53D
:0300BA001380E5CB
:10001A0002009AE493A3F8E493A34003F68001F262
:10002A0008DFF48029E493A3F85407240CC8C333E7
:10003A00C4540F4420C8834004F456800146F6DFB6
:10004A00E4800B01020408102040809000D8E47E6E
:10005A00019360BCA3FF543F30E509541FFEE493AB
:10006A00A360010ECF54C025E060A840B8E493A372
:10007A00FAE493A3F8E493A3C8C582C8CAC583CA9D
:10008A00F0A3C8C582C8CAC583CADFE9DEE780BE55
:0100E400001B
:00000001FF
