:101DBC008F1A8C1B8D1C121F7F7FA0121C27121FC9
:101DCC003EAF1A121C27121F3EAF1C121C27121FEB
:041DDC003E021F9113
:021CBC008F1A7D
:101CBE00121F7F7FA0121C27121F3EAF1A121C2765
:101CCE00121F3E121F7F7FA1121C27121F3E121DD4
:0D1CDE006F8F1B7F01121F6C121F91AF1B37
:011CEB0022D6
:100FA8000003050911FF118905C300E000F000F8EE
:100FB800000000000000004428FF11AA44000000BF
:100FC8000000000000000000000000000000000019
:100FD8000000000000000000000000000000000009
:100FE80000000000000000000000000000000000F9
:100FF80000000000000000000000830138448292D5
:1010080092740183000000000000007C44FF017D11
:101018007D7D017D7D7D7D017D7D7D7D7D01FF0067
:1010280000000000000100010001000100010001B2
:1010380000000000000000000001010000000000A6
:101048000000000000000000000000000000000098
:101058000000000000000000000000000000000088
:101068000000000000000000000000000000000078
:101078000000000000000000000001010000000066
:101088000000010100000000000000000001010153
:101098000101010101010101010101010101010039
:1010A8000000000000000000000000000000000038
:1010B8000000000000000000000000003F3F0303A4
:1010C800F31311111111111101F1116181010101C4
:1010D800816111F1010101014141F10101010101A8
:1010E800C1211111111121C1010101014141F10178
:1010F8000101010101010101011111111111D33384
:1011080003033F3F00000000000000000000000053
:1011180000000000000000000000000000000000C7
:1011280000000000000000000000000000000000B7
:10113800000000000000000000000000E0E00000E7
:101148007F01010101010100007F0000010618066E
:101158000100007F0000000040407F404000000088
:101168001F2040404040201F0000000040407F40BA
:101178004000000000600000000040300C03000048
:101188000000E0E000000000000000000000000097
:101198000000000000000000000000000000000047
:1011A8000000000000000000000000000000000037
:1011B800000000000000000000000000070706060D
:1011C80006060404048444444484040484444444D3
:1011D8008404040484C40404040484444444840447
:1011E8000404040484444444840404040404844437
:1011F80044448404048444444484040404040606E3
:1012080006060707000000000000000000000000BC
:1012180000000000000000000000000000000000C6
:1012280000000000000000000000000000000000B6
:1012380000000000000000000000000000000000A6
:101248000000000000101814121100000F101010F8
:101258000F000000101F10000000081012120D00EF
:10126800001800000D1212120D00001800001018CE
:1012780014121100001018141211000000000000D0
:101288000000000000000000000000000000000056
:101298000000000000000000000000000000000046
:1012A8000000000000000000000000000000000036
:1012B8000000000000000000000000000000000026
:1012C8000000000000000000000000000000000016
:1012D8000000000000000000000000008080808006
:1012E80080808080000000000000000000000000F6
:1012F80000000000000000000000000000000000E6
:1013080000000000000000000000000000000000D5
:1013180000000000000000000000000000000000C5
:10132800007F030C300C037F000038545458000031
:101338007C04047800003C40407C00000000000071
:101348000000000000000000000000000000000095
:10135800000000000000000000000000FFAAAAAA88
:10136800280800FF00000000000000000000000046
:101378000000000000000000000000000000000065
:101388000000000000000000007F030C300C037F09
:101398000000264949493200007F020408107F00F6
:1013A80012184D121C59121F9F121D448F178E16AA
:1013B8008D158C14121F31AF17AE16AD15AC141263
:1013C8000D7A8E0A8F0BE4FFFE7DC87C42AB17AA0C
:1013D80016A915A814120B96120D7A8E0C8F0D12E1
:1013E8001F17EF6063121FAB8F13121FAE8F127E91
:1013F80000EF6445700E0509E509700205085309F8
:1014080001750800EF64074E7027FCAD0BFF121D35
:10141800BC7F057E00121E6FAE0CAF0D7C037DE80D
:10142800120E287C007F01121DBC7F057E00121E53
:101438006FE51264467011121C590519E5197002FE
:101448000518531901751800E50945087003121CA1
:1014580059E509640145086003021583E519451833
:101468006003021583FBFDFF121A087B01E4FD7F70
:1014780012121A087B02E4FD7F24121A087B03E487
:10148800FD7F36121A087B097D03E4FF121A087BD8
:10149800067D037F12121A087528107B3A7D037F98
:1014A8002412192DAF17AE16AD15AC14120D7A8F84
:1014B8001F8E1E8D1D8C1C7520027521107D037FCB
:1014C80036121A8C7528107B2E7D037F4612192D33
:1014D8007F007E407D1C7C46AB17AA16A915A81470
:1014E800120B96120D7AE47B107A27F9F8120F087E
:1014F800AC00AD01AE02AF038F1F8E1E8D1D8C1C7C
:101508007520037521107D037F50121A8CE4FF1299
:101518001CBC750E008F0F7F01121CBC7510008F4C
:10152800117B047D06E4FF121A087B057D067F12F5
:10153800121A087528107B3A7D067F2412192DE4AB
:10154800850F1F850E1EF51DF51C752002752110CF
:101558007D067F36121A8C7528107B2E7D067F46F5
:1015680012192DE485111F85101EF51DF51C752017
:10157800037521107D067F50121A8CE50964014518
:101588000860030213B1E5196401451860030213EA
:10159800B17B07FDFF121A087B08E4FD7F12121ABF
:1015A800087B01E4FD7F24121A087B097D03E4FF10
:1015B800121A087B067D037F12121A087528107B01
:1015C8003A7D037F2412192D7F667E667DE67C3F77
:1015D800AB17AA16A915A814120B96E4FBFAF9780A
:1015E80042120AA5120D7A8F1F8E1E8D1D8C1C7536
:1015F80020027521107D037F36121A8C7528107B06
:101608002E7D037F4612192D7F007E407D1C7C466F
:10161800AB17AA16A915A814120B96120D7AE47B1B
:10162800107A27F9F8120F08AC00AD01AE02AF032B
:10163800E4120D3C7B667A6679E6783F120B9612C7
:101648000D7A8F1F8E1E8D1D8C1C75200375211021
:101658007D037F50121A8CE4FF121CBC750E008F9C
:101668000F7F01121CBC7510008F117B047D06E4EE
:10167800FF121A087B057D067F12121A08752810BA
:101688007B3A7D067F2412192DAC0EAD0FE4120DA6
:10169800417B667A6679E6783F120B96E4FBFAF9A5
:1016A8007842120AA5120D7A8F1F8E1E8D1D8C1C72
:1016B8007520027521107D067F36121A8C75281048
:1016C8007B2E7D067F4612192DAC10AD11E4120D4C
:1016D800417B667A6679E6783F120B96120D7A8F0F
:1016E8001F8E1E8D1D8C1C7520037521107D067F95
:0716F80050121A8C0213B11D
:0B1F5600D288C289D2A8D2AFD2B82234
:061F9F00121EDB021F56BA
:0D1F1700E5326006E4F5327F01227F0022F2
:0D1F2400E5306006E4F5307F01227F0022E9
:031FAB00AF2F2233
:031FAE00AF2E2231
:030003000216FFE3
:1016FF00C0E0C0F0C083C082C0D075D000C000C0B1
:10170F0001C002C003C004C005C006C007E52B70AE
:10171F000CFFFE121F617F01121FA58049E52B648C
:10172F00017049121F768E2C8F2DE4FFFE121F6160
:10173F00D3E52D94A6E52C942E4010E52D948EE53F
:10174F002C94325006752B02021832D3E52D948C4F
:10175F00E52C94264010E52D9474E52C942A500620
:10176F0075300102182A752B01021832E52B64021D
:10177F006003021832121F768E2C8F2DE4FFFE129B
:10178F001F61D3E52D9414E52C9402402BE52D9485
:10179F00FCE52C94055021E531131313541F24330A
:1017AF00F8C000E6FFE5315407FEF8740108800227
:1017BF00C333D8FCF45F8033D3E52D9426E52C9406
:1017CF0006402FE52D940EE52C940A5025E5311394
:1017DF001313541F2433F8C000E6FFE5315407FEFE
:1017EF00F87401088002C333D8FC4FD000F60531DE
:1017FF008006753100752B01C3E5319420748094F8
:10180F00804020753100E534F4B5330FE536F4B57B
:10181F00350985332F85352E753201E4FF121FA54B
:10182F00752B00D007D006D005D004D003D002D03E
:0E183F0001D000D0D0D082D083D0F0D0E032E3
:101EDB005389F0438901E4F58AF58CC28DC28C22BB
:0B1F6100AD07AC068C8CAF058F8A2208
:091F7600AF8CEFFEAD8AEDFF22F5
:061FA500EF24FF928C22E4
:0D1F3100121E3B7FCC121DE07F44021DE01C
:101D4400121E3B7FCC121DE07FBE121DE0121D96B9
:101D54008F1A121D96EFFEE51AFFFDAC06EC120D6C
:0B1D640041E4FBFA79807841020C9FFB
:101E3B00D2B7C2B77FF7DFFED2B77F20DFFEA2B7E4
:091E4B00E433FE7FF7DFFEAF0671
:011E5400226B
:101EB800C2B77E04DEFEEF24FF92B77E18DEFED2A4
:011EC800B762
:011EC90022F6
:101E8900C2B77F02DFFED2B77F02DFFEA2B7E4331B
:071E9900FE7F18DFFEAF061B
:011EA000221F
:021DE000AD074D
:101DE200E4FCECC39408748094805013A80474013A
:0F1DF200088002C333D8FC5DFF121EB80C80E3DB
:011E010022BE
:101D9600E4FDFCECC39408748094805016121E89EE
:101DA600EF600DA8047401088002C333D8FC420515
:051DB6000C80E0AF0508
:011DBB002205
:101E200053877F75985053890F438920758BFA75B6
:0B1E30008DFAC2ABD28ED2AFD2AC2232
:091F7F00D2A0D2A1C2A0C2A1228D
:071F9100C2A0D2A1D2A022E0
:021C2700AD0707
:101C2900E4FBEBC394087480948050237E00748095
:101C3900A803088006CEA2E713CE13D8F8FFEDF566
:0F1C490082EF558224FF92A0D2A1C2A10B80D3BB
:011C58002269
:101D6F00E4FFD2A0FEEEC39408748094805017D283
:101D7F00A130A00DA8067480088002C313D8FC42BE
:061D8F0007C2A10E80DF77
:011D9500222B
:0A1F6C00EF24FF92A0D2A1C2A1222F
:0B1F3E00D2A0D2A1A2A0E433FFC2A1F8
:011F49002275
:100006000000000000000000002F000000000700B4
:10001600070000147F147F1400242A7F2A1200622E
:1000260064081323003649552250000005030000DA
:1000360000001C224100000041221C000014083E62
:1000460008140008083E0808000000A06000000828
:10005600080808080000606000000020100804027C
:10006600003E5149453E0000427F4000004261513A
:100076004946002141454B31001814127F100027D4
:1000860045454539003C4A49493000017109050397
:1000960000364949493600064949291E00003636C8
:1000A600000000005636000000081422410000142B
:1000B6001414141400004122140800020151090608
:1000C60000324959513E007C1211127C007F494989
:1000D6004936003E41414122007F4141221C007FBA
:1000E60049494941007F09090901003E4149497AC8
:1000F600007F0808087F0000417F41000020404142
:100106003F01007F08142241007F40404040007FAD
:10011600020C027F007F0408107F003E4141413EF1
:10012600007F09090906003E4151215E007F091939
:1001360029460046494949310001017F0101003F36
:100146004040403F001F2040201F003F4038403FB6
:10015600006314081463000708700807006151491A
:10016600454300007F41410000552A552A550000AD
:1001760041417F000004020102040040404040402B
:10018600000001020400002054545478007F4844C3
:10019600443800384444442000384444487F0038FA
:1001A6005454541800087E0901020018A4A4A47C23
:1001B600007F080404780000447D400000408084ED
:1001C6007D00007F102844000000417F4000007C35
:1001D60004180478007C0804047800384444443841
:1001E60000FC242424180018242418FC007C08048D
:1001F600040800485454542000043F444020003C66
:100206004040207C001C2040201C003C4030403CEC
:10021600004428102844001CA0A0A07C004464547C
:100226004C441414141414140000000000000000C0
:100236000000000000000000000000F800000000C0
:10024600000000333000000000100C06100C060001
:10025600000000000000000040C07840C078400068
:10026600043F04043F040400007088FC08300000CA
:10027600001820FF211E0000F008F000E018000022
:1002860000211C031E211E0000F0088870000000DB
:100296001E2123241927211010160E00000000002D
:1002A6000000000000000000000000E0180402004A
:1002B600000000071820400000020418E0000000BB
:1002C6000040201807000000404080F080404000B9
:1002D6000202010F01020200000000F0000000000F
:1002E6000101011F010101000000000000000000E3
:1002F60080B0700000000000000000000000000058
:1003060000010101010101010000000000000000E0
:10031600003030000000000000000000806018047B
:10032600006018060100000000E010080810E00058
:10033600000F102020100F00001010F80000000021
:100346000020203F20200000007008080888700068
:1003560000302824222130000030088888483000E8
:100366000018202020110E000000C02010F8000008
:1003760000070424243F240000F8088888080800A1
:100386000019212020110E0000E0108888180000B6
:10039600000F112020110E0000380808C838080088
:1003A6000000003F00000000007088080888700008
:1003B600001C222121221C0000E010080810E00089
:1003C6000000312222110F00000000C0C000000012
:1003D6000000003030000000000000800000000037
:1003E600000080600000000000008040201008002F
:1003F60000010204081020004040404040404000F8
:1004060004040404040404000008102040800000D2
:100416000020100804020100007048080808F000D7
:100426000000003036010000C030C828E810E000A7
:100436000718272423140B000000C038E000000032
:10044600203C23020227382008F88888887000009C
:10045600203F202020110E00C03008080808380070
:10046600071820202010080008F808080810E000E7
:10047600203F202020100F0008F88888E808100088
:10048600203F20202320180008F88888E80810005C
:10049600203F200003000000C03008080838000094
:1004A60007182020221E020008F808000008F80895
:1004B600203F210101213F20000808F8080800001C
:1004C6000020203F2020000000000808F80808004F
:1004D600C08080807F00000008F888C028180800C7
:1004E600203F20012638200008F808000000000000
:1004F600203F20202020300008F8F800F8F80800F7
:10050600203F003F003F200008F830C00008F808F0
:10051600203F200007183F00E01008080810E00000
:100526000F10202020100F0008F808080808F00017
:10053600203F210101010000E01008080810E0003A
:100546000F18242438504F0008F8888888887000CF
:10055600203F2000030C302000708808080838006F
:100566000038202121221C00180808F80808180065
:100576000000203F2000000008F808000008F808E6
:10058600001F202020201F000878880000C8380897
:10059600000007380E010000F80800F80008F8000F
:1005A600033C0700073C03000818688080681808A9
:1005B60020302C03032C30200838C800C838080027
:1005C6000000203F2000000010080808C838080076
:1005D6002038262120201800000000FE020202001A
:1005E6000000007F40404000000C30C000000000CA
:1005F600000000010638C00000020202FE000000F2
:10060600004040407F000000000004020202040097
:1006160000000000000000000000000000000000D4
:1006260080808080808080800002020400000000BC
:1006360000000000000000000000808080800000B4
:100646000019242222223F2008F8008080000000A2
:10065600003F112020110E00000000808080000065
:10066600000E112020201100000000808088F80074
:10067600000E112020103F200000808080800000A6
:10068600001F222222221300008080F0888888180A
:100696000020203F20200000000080808080800015
:1006A600006B94949493600008F8008080800000AA
:1006B600203F210000203F20008098980000000085
:1006C6000020203F202000000000008098980000B5
:1006D60000C08080807F000008F8000080808000D5
:1006E600203F24022D302000000808F800000000FA
:1006F6000020203F202000008080808080808000B5
:10070600203F20003F20003F808000808080000046
:10071600203F210000203F200000808080800000D4
:10072600001F202020201F00808000808000000005
:1007360080FFA12020110E00000000808080800034
:10074600000E112020A0FF80808080008080800025
:1007560020203F2120000100000080808080800052
:100766000033242424241900008080E080800000C7
:100776000000001F20200000808000000080800014
:10078600001F202020103F20808080000080808075
:1007960000010E3008060100808000800080808005
:1007A6000F300C030C300F0000808000808080002A
:1007B6000020312E0E312000808080000080808055
:1007C60080818E7018060100008080808080800005
:1007D6000021302C2221300000000000807C020223
:1007E60000000000003F404000000000FF00000045
:1007F60000000000FF0000000002027C80000000F4
:100806000040403F0000000000060101020204040F
:1008160000000000000000001060028C0000FE9244
:1008260092929292FE00000000000000000000007C
:10083600000000000000000004047E01407E4242E9
:100846007E427E42427E4000000000000000000022
:1008560000000000000000000000FC242424FC2509
:100866002624FC24242404000000000000000000CC
:10087600000000000000000040308F80844C5525A9
:100886002525554C808080000000000000000000F7
:1008960000000000000000001010D0FF9050205013
:1008A6004C434C5020404000000000000000000077
:1008B6000000000000000000040300FF004144584F
:1008C600414E605847404000000000000000000014
:1008D60000000000000000001060028C00FE02F222
:1008E60002FE00F800FF000000000000000000000B
:1008F600000000000000000004047E018047300F65
:1009060010270047807F0000000000000000000064
:1009160000000000000000008060F8878498002036
:1009260024A47F24342824000000000000000000D6
:1009360000000000000000000000FF00007F2412FD
:1009460001FF494949FF00000000000000000000C7
:100956000000000000000000040484E41C072424B6
:100966002424A46424040400000000000000000005
:100976000000000000000000020100FF0002024229
:10098600827F020202020200000000000000000056
:10099600000000000000000000FC848484FC0010BD
:1009A60010101010FF1010000000000000000000E2
:1009B6000000000000000000003F1010103F000083
:1009C600010640807F0000000000000000000000DB
:1009D6000000000000000000201008FC032020108A
:1009E6007F88888482E0000000000000000000008C
:1009F600000000000000000004040405040404FFD5
:100A060004040404040404000000000000000000C4
:100A160000000000000000000000FC444444444480
:100A2600FE42424342404000000000000000000039
:100A360000000000000000000000FF402000000051
:100A4600010608102040F800000000000000000029
:100A56000000000000000000100C04841464050669
:100A6600F404040404140C0000000000000000005C
:100A76000000000000000000048484444724140C95
:100A8600070C142444840400000000000000000049
:080A9600000000000000000058
:101E5500EF4E60157D087C07ED1DAA0470011C4A34
:091E650070F6EF1F70EA1E80E721
:011E6E002251
:091F8800D290D291C291C29022C4
:071F9800D290C291D2912208
:0B1EEB00121C92121EF6AF04121C9293
:051EF600D290C2902211
:071C8B00AC07121F887F78EF
:101C9200C290E4FEEEC3940874809480501BAD079A
:101CA200530580ED64807004D2918002C291EF25C9
:091CB200E0FFD290C2900E80DB2D
:011CBB002206
:0E1EFB00121C8B121EF6E4FF121EEB021F9843
:0E1F0900121C8B121EF67F40121EEB021F9858
:101CEC00EF24B0FFEE33FEE4FDFC121D07E4FDFC17
:0B1CFC00FFFE121D077F10E4FDFCFE40
:101D0700AB07AA06ED4C6003021F09AF03121EFBC7
:011D170022A9
:021BF2008F4919
:101BF400E4F9E9FF7E00C3940874809480502312B2
:101C04001CECE4F54AC3E54A948074809480500F38
:101C1400AF497E007D017C00121D07054A80E6095C
:021C240080D06E
:011C2600229B
:101E0200D3EF9400EE940040147D657C18ED1D70B4
:0D1E1200011CED4C70F7EF1F70E61E80E321
:011E1F0022A0
:101E6F00EF1FAA0670011E4A600FE4FDEDC3947BBD
:091E7F007480948050EA0D80F398
:011E88002237
:101D1800A907ED24B0FFE433FEE4FDFC121D07E93A
:101D280054F0C4540F7E004410FFE4FDFC121D075C
:0C1D3800E9540FFF7E00E4FDFC021D07D3
:101EA1007F8D121D03E4FDFC7F14FE121D07E4FD6E
:071EB100FC7FAFFE021D07DC
:101ECA00E4FDFC7F8D121CFDE4FDFC7FAFFE021DCC
:011EDA000700
:101C5900E4F9E9FF7E00C39408748094805022124D
:101C69001CECE4F51AC3E51A948074809480500E34
:101C79007D017C00E4FFFE121D07051A80E709803B
:011C8900D189
:011C8A002237
:04192D008F258D264F
:10193100E4F529F9EB24E0F529D3EF947F74809441
:10194100804007E4F52505260526E5286410707A10
:10195100AD26AF25121D18E4F9E9C39408748094EB
:1019610080502975F010E529A429F582E435F0F5B8
:1019710083E582242EF582E5833402F583E493FF27
:101981007E007D017C00121D070980CDE52604FD46
:10199100AF25121D18E4F9E9C394087480948050AE
:1019A1006575F010E529A429F582E435F0F583E5A4
:1019B100822436F582E5833402F583E493FF7E00C9
:1019C1007D017C00121D070980CDAD26AF25121DBA
:1019D10018E4F9E9C3940674809480502975F006DF
:1019E100E529A42406F582E5F03400F583E5822992
:1019F100F582E43583F583E493FF7E007D017C006D
:061A0100121D070980CD53
:011A070022BC
:041BB9008F258D26C1
:101BBD00E4752A01F529F528F527AF261526EF60DE
:101BCD001BAB2AAA29A928A827AF25E4FCFDFE12E4
:101BDD000E7D8F2A8E298D288C2780DEAF2AAE2987
:041BED00AD28AC274C
:011BF10022D1
:041A8C008F1A8D1B05
:101A9000E4F524F522E522C39520506FC3E5209597
:101AA0002214FD7F0A121BB9A804A905AA06AB07D8
:101AB000AF1FAE1EAD1DAC1C120F08E47B0AFAF975
:101AC000F8120F08AF038F23E5247023E52014FFDD
:101AD000E522C39F5019E5237012E521C313852227
:101AE000F0A4251AFF8521287B208016752401E5A6
:101AF00021C3138522F0A4251AFFE5232430FB859A
:0B1B00002128AD1B12192D0522808A40
:011B0B0022B7
:0A1B75008F428D438B448A45894658
:101B7F00E4F548AB44AA45A946854882758300120F
:101B8F000DFBFB6024854728AD43AF4212192D741E
:101B9F00082542F542D39478748094804007E4F589
:091BAF004205430543054880CAC4
:011BB800220A
:061A08008F1A8D1B8B1CE0
:101A0E00E4F51D121D18E4F9E9C394107480948056
:101A1E00502B75F040E51CA4241EF582E5F0340829
:101A2E00F583E58229F582E43583F583E493FF7E21
:101A3E00007D017C00121D07051D0980CBE51B04EE
:101A4E00FDAF1A121D18E4F9E9C394107480948046
:101A5E00502B75F040E51CA4243EF582E5F03408C9
:101A6E00F583E58229F582E43583F583E493FF7EE1
:0D1A7E00007D017C00121D07051D0980CBB5
:011A8B002238
:041B0C008F378B394B
:101B1000E4F53EF53FE53A5407700BE53A1313132D
:101B2000541FF541800AE53A131313541F04F5417D
:101B30008D41E541C3953A503BAD41AF37121D1879
:101B4000853740E540C395395026AB3BAA3CA93DBB
:101B5000053FE53FAE3E7002053E14F5828E8312CE
:101B60000DFBFF7E007D017C00121D07054080D328
:041B7000054180BEED
:011B7400224E
:10184D00E4FDFC7FAEFE121CF6E4FDFC7F40FE12B3
:10185D001D07E4FDFC7FB0FE121D07E4FDFC7F813A
:10186D00FE121D07E4FDFC7FFFFE121D07E4FDFCCB
:10187D007FA1FE121D07E4FDFC7FA6FE121D07E4ED
:10188D00FDFC7FA8FE121D07E4FDFC7F3FFE121D2F
:10189D0007E4FDFC7FC8FE121D07E4FDFC7FD3FEAF
:1018AD00121D07E4FDFCFFFE121D07E4FDFC7FD5B4
:1018BD00FE121D07E4FDFC7F80FE121D07E4FDFCFA
:1018CD007FD8FE121D07E4FDFC7F05FE121D07E407
:1018DD00FDFC7FD9FE121D07E4FDFC7FF1FE121DFC
:1018ED0007E4FDFC7FDAFE121D07E4FDFC7F12FE0E
:1018FD00121D07E4FDFC7FDBFE121D07E4FDFC7FDE
:10190D0030FE121D07E4FDFC7F8DFE121D07E4FD68
:10191D00FC7F14FE121D07E4FDFC7FAFFE021D07C8
:100A9E00020DE6E86480F8E933E83360110460F093
:100AAE00ED33EC337009E8FCE9FDEAFEEBFF2204BE
:100ABE0060DED3EB9FEA9EE99DE8C2E78CF0C2F7B9
:100ACE0095F0400CE8CCF8E9CDF9EACEFAEBCFFB85
:100ADE00120DB185D0F05804700320D5B3E8047020
:100AEE00075002B2D5020DF092D5EC0460F7E4CCBB
:100AFE00C0E0C398F8603B94186008400DD0E0FB4E
:100B0E00020DC8E4FBFAC9FC8028E830E406E4C90B
:100B1E00FBE4CAFCE830E305E4C9CACBFCE85407A1
:100B2E006010F8C3E913F9EA13FAEB13FBEC13FCAC
:100B3E00D8F130F52FC3E49CFCEF9BFFEE9AFEED4F
:100B4E0099FDD0E0FBEF4E4D4C701222DB03020DEF
:100B5E00EDEC2CFCEF33FFEE33FEED33FDED30E725
:100B6E00EB020DC8EF2BFFEE3AFEED39FDD0E0FBA8
:100B7E0050130BBB0003020DF0ED13FDEE13FEEF51
:080B8E0013FFEC13FC020DC87B
:100B9600EC4D6011E8497017ED33EC3304600DE459
:100BA600FCFFFEFD22E933E8330470F8020DE6127D
:100BB6000DB158046009E4CC24815006285009027E
:100BC6000DF0284003020DEDC0E0EB4A7044B980F9
:100BD60006D0E0FB020DDCEF4E701CBD8008EBFF7B
:100BE600EAFEE9FD80EBE98DF0A4FEE5F0020C7F5C
:100BF600E9CDF9EAFEEBFFEF89F0A4FCE5F0CE893A
:100C0600F0A42EFFE435F0CD89F0A42DFEE435F0F6
:100C16008067EF4E7005BD80D780C3EF8BF0A4AC24
:100C2600F0EE8BF0A42CFCE435F0F8EF8AF0A42C5F
:100C3600E5F038FCE433CB8DF0A42CFCE5F03BF872
:100C4600EE8AF0A42CFCE5F038F8E433CF89F0A462
:100C56002CFCE5F038CF3400CE89F0A42FFFE5F068
:100C66003EFEE433C98DF0A42EFEE5F039CD8AF0C0
:100C7600A42FFFE5F03EFEE43DFD33D0E0FB500738
:100C86000BBB000F020DF0EC2CFCEF33FFEE33FE36
:060C9600ED33FD020DC864
:100C9C00020DF0EC5D046005E859047003020DE6EA
:100CAC00120DB1580460F6EC4860F2EC7004FDFED5
:100CBC00FF22C860DB2481C85009C398600250062B
:100CCC00020DED9850CAF582E9294B4A7005AB82AA
:100CDC00020DDC75F0007C1A7880C3EF9BEE9AED68
:100CEC0099400DC3EF9BFFEE9AFEED99FDE842F0A3
:100CFC00DC23ACF0D0E0FFD0E0FED0E0FDAB8220F6
:100D0C00E7101BEB60BAEC2CFCEF33FFEE33FEED7F
:100D1C0033FD020DC8E803F830E705C0F075F000AC
:100D2C00EF2FFFEE33FEED33FD40B830E7C280AA63
:100D3C0075F020800E75F010800575F0087D007E32
:100D4C00007F003392D530D503120F9AEC3340104C
:100D5C00EF33FFEE33FEED33FDEC33FCD5F0ED223B
:0E0D6C00E5F0247EA2D513CC92E7CDCEFF2277
:100D7A00EDD2E7CD33EC3392D524814006E4FFFE71
:100D8A00FDFC22FCE4CFCECDCC24E0501174FF80D0
:100D9A00EDC3CC13CCCD13CDCE13CECF13CF04706D
:070DAA00F030D5DE020F9AC4
:100DB100E9D2E7C933E833F892D5EDD2E7CD33EC88
:070DC10033FC5002B2D52201
:100DC800EC30E7100FBF000C0EBE00080DBD00048C
:100DD8000BEB6014A2D5EB13FCED92E7FD2274FF38
:100DE800FCFDFEFF22E480F8A2D574FF13FC7D8091
:030DF800E480EFA5
:03000000021F4A92
:0C1F4A00787FE4F6D8FD75814A0213A8E8
:100DFB00BB010CE58229F582E5833AF583E02250AD
:100E0B0006E92582F8E622BBFE06E92582F8E222F6
:0D0E1B00E58229F582E5833AF583E4932210
:100E2800BC000BBE0029EF8DF084FFADF022E4CCAE
:100E3800F875F008EF2FFFEE33FEEC33FCEE9DEC77
:100E4800984005FCEE9DFE0FD5F0E9E4CEFD22EDBD
:100E5800F8F5F0EE8420D21CFEADF075F008EF2F07
:100E6800FFED33FD4007985006D5F0F222C398FDF8
:050E78000FD5F0EA2295
:100E7D00E88FF0A4CC8BF0A42CFCE98EF0A42CFC14
:100E8D008AF0EDA42CFCEA8EF0A4CDA8F08BF0A492
:100E9D002DCC3825F0FDE98FF0A42CCD35F0FCEBF1
:100EAD008EF0A4FEA9F0EB8FF0A4CFC5F02ECD39B6
:0F0EBD00FEE43CFCEAA42DCE35F0FDE43CFC2223
:100ECC0075F008758200EF2FFFEE33FECD33CDCCDD
:100EDC0033CCC58233C5829BED9AEC99E582984060
:100EEC000CF582EE9BFEED9AFDEC99FC0FD5F0D63D
:100EFC00E4CEFBE4CDFAE4CCF9A88222B800C1B967
:100F0C000059BA002DEC8BF084CFCECDFCE5F0CBA4
:100F1C00F97818EF2FFFEE33FEED33FDEC33FCEBDD
:100F2C0033FB10D703994004EB99FB0FD8E5E4F998
:100F3C00FA227818EF2FFFEE33FEED33FDEC33FC85
:100F4C00C933C910D7059BE99A4007EC9BFCE99A79
:100F5C00F90FD8E0E4C9FAE4CCFB2275F010EF2FBE
:100F6C00FFEE33FEED33FDCC33CCC833C810D707BE
:100F7C009BEC9AE899400AED9BFDEC9AFCE899F8F9
:0E0F8C000FD5F0DAE4CDFBE4CCFAE4C8F9228C
:0E0F9A00C3E49FFFE49EFEE49DFDE49CFC2268
:00000001FF
