:1003F900414444522020434D4420204E554D003065
:0E0409003020202020303020202030303000E5
:1001E8001204357BFF7A0379F97D017F0112036BD5
:1001F8007BFF7A0479087D017F0212036B1204D514
:10020800120497C00712048AD0E04F60F31204DB8F
:100218008F2B1204DE8F2AE52BFB7A007518027DDE
:10022800017F02120261E52AFB7A007518027D0738
:100238007F02120261AF2A7E00EF64157002152951
:10024800EF64094E70020529E529FB7A0075180349
:090258007D0C7F021203D580A782
:1002EE00C2A58F807F017E001202FFD2A77F057EFE
:0102FE0000FF
:1002FF00D3EF9400EE940040257DC7EDD3940074A6
:10030F0080948040127C01ECD394007480948040E0
:0E031F00031C80F31D80E4EF1F70D51E80D2FA
:01032D0022AD
:03047D004480FFB9
:0A048000C2A7C2A61202EEC2A72214
:10041700CFCDCFCECCCE1201937C007D0A120193B3
:04042700ED2430FF91
:0A042B00C2A7D2A61202EEC2A72259
:100435007F381204807F0C1204807F061204807FAF
:04044500010204802C
:10045D00EF64017004ED148003ED243F12047D223E
:10044900EF64017004ED148003ED243F12047DAFC5
:040459000302042B6B
:08036B008D148B158A16891709
:10037300EF64017005E514148004E514243F448000
:10038300FF120480E4F518AB15AA16A91785188285
:10039300758300120154FF600712042B051880E7D0
:0103A3002237
:0A03A400EF24FFFDEE34FFFC7F0A9A
:0803AE008E198F1A8C1B8D1CA7
:1003B6007F017E00E4FBEBC3951CE51B6480F874AB
:0E03C6008098500AAC19AD1A1201810B80E824
:0103D4002206
:0403D5008A168B17E2
:1003D90012045DAA18EAFF7E00D394007480948009
:0F03E900400D1203A4AC16AD171204171A80E6CC
:0103F80022E2
:1002AD0012045DC3EA64809480400B7F2B12042BF3
:1002BD008A228B23800E7F2D12042BC3E49BF52302
:1002CD00E49AF522AA21EAFF7E00D394007480946B
:1002DD0080400D1203A4AC22AD231204171A80E640
:0102ED0022EE
:040261008A168B1757
:1002650012045DAA18EAFF7E00D39400748094807E
:100275004035EF24FFFDEE34FFFC7F101203AEACDA
:1002850016AD17CFCDCFCECCCE120193EF540FFEC6
:10029500C3940A74809480EE50042430800224377D
:0702A500FF12042B1A80BEBA
:0102AC00222F
:04032E008A268B2769
:1003320012045DAA28EAFF7E00D3940074809480A0
:100342004026EF24FFFDEE34FFFC7F021203AEAC29
:1003520026AD27CFCDCFCECCCE120193EF540124C0
:0803620030FF12042B1A80CDBC
:01036A002270
:10046D005389F0438901E4F58AF58CC28DC28C2243
:0B04B000AD07AC068C8CAF058F8A22D4
:0904C600AF8CEFFEAD8AEDFF22C0
:0604CF00EF24FF928C22D5
:0604D50012046D0204BBDD
:0D048A00E50F6006E4F50F7F01227F0022E0
:0D049700E50D6006E4F50D7F01227F0022D7
:0304DB00AF0C2241
:0304DE00AF0B223F
:03000300020006F2
:10000600C0E0C0F0C083C082C0D075D000C000C0C0
:1000160001C002C003C004C005C006C007E50870E1
:100026000CFFFE1204B07F011204CF8049E508647C
:100036000170491204C68E098F0AE4FFFE1204B04D
:10004600D3E50A94A6E509942E4010E50A948EE5B8
:100056000994325006750802020139D3E50A948CD8
:10006600E50994264010E50A9474E509942A500699
:10007600750D01020131750801020139E5086402B6
:1000860060030201391204C68E098F0AE4FFFE12CC
:1000960004B0D3E50A9414E5099402402BE50A94CA
:1000A600FCE50994055021E50E131313541F241083
:1000B600F8C000E6FFE50E5407FEF874010880025A
:1000C600C333D8FCF45F8033D3E50A9426E509945C
:1000D60006402FE50A940EE509940A5025E50E130D
:1000E6001313541F2410F8C000E6FFE50E5407FE54
:1000F600F87401088002C333D8FC4FD000F6050E11
:100106008006750E00750801C3E50E942074809470
:10011600804020750E00E511F4B5100FE513F4B517
:10012600120985100C85120B750F01E4FF1204CF1E
:10013600750800D007D006D005D004D003D002D071
:0E01460001D000D0D0D082D083D0F0D0E032F3
:0B04BB00D288C289D2A8D2AFD2B822EA
:030000000204A453
:0C04A400787FE4F6D8FD75812B0201E89A
:10015400BB010CE58229F582E5833AF583E0225060
:1001640006E92582F8E622BBFE06E92582F8E222AA
:0D017400E58229F582E5833AF583E49322C4
:10018100EF8DF0A4A8F0CF8CF0A428CE8DF0A42E92
:02019100FE224C
:10019300BC000BBE0029EF8DF084FFADF022E4CC50
:1001A300F875F008EF2FFFEE33FEEC33FCEE9DEC19
:1001B300984005FCEE9DFE0FD5F0E9E4CEFD22ED5F
:1001C300F8F5F0EE8420D21CFEADF075F008EF2FA9
:1001D300FFED33FD4007985006D5F0F222C398FD9A
:0501E3000FD5F0EA2237
:00000001FF
