:0A0452003F065B4F666D7D077F6F6C
:10000300758910758DFF758B38D2AFD2ABD28E2226
:08041F00D2A2D2A37F0A7E00E5
:10042700D3EF9400EE94004015E4FDFC0DBD0001F0
:0E0437000CED647D4C70F5EF1F70E51E80E249
:010445002294
:1003C200E51690045293F590C2A0D2A112041FE444
:1003D200F590E51593F590E51264027002D297D27A
:1003E200A0C2A112041FE4F590E51490045293F503
:1003F20090E512640A7003759001D2A0D2A1C2A244
:10040200120421E4F590E51390045293F590D2A0E2
:0D041200D2A1D2A2C2A3120423E4F59022CD
:1002E600120003C2B4C2B5C2B6C2B2D2B37512020C
:1002F600C2A4C2A5D2A4C2A430A6FDD2A5AF807561
:100306000A008F0BC2A520B21930B316C3E50B94B1
:1003160006E50A9400500BD2B4D2B2C2B375120AE3
:10032600801A30B21720B314D3E50B9400E50A9473
:10033600014009C2B4C2B2D2B3751202AC0AAD0B07
:10034600E41201C9E4FBFA797F7843120127E4FB42
:10035600FA79FA784312001EC004C005C006C00729
:10036600AC12E41201CED003D002D001D0001200AC
:100376001E1202028E088F097C007D0A1202838DEE
:1003860013AE08AF097C007D0A1202837C007D0A49
:100396001202838D14AE08AF097C007D64120283BD
:1003A6007C007D0A1202838D15AE08AF097C037DA1
:0C03B600E81202838F161203C20202F646
:03001B0002045C80
:09045C00758DFF758B38B2A732D3
:10001E00EC4D6011E8497017ED33EC3304600DE4DC
:10002E00FCFFFEFD22E933E8330470F802026E1283
:10003E00023958046009E4CC248150062850090284
:10004E000278284003020275C0E0EB4A7044B98082
:10005E0006D0E0FB020264EF4E701CBD8008EBFF81
:10006E00EAFEE9FD80EBE98DF0A4FEE5F002010762
:10007E00E9CDF9EAFEEBFFEF89F0A4FCE5F0CE89BD
:10008E00F0A42EFFE435F0CD89F0A42DFEE435F07A
:10009E008067EF4E7005BD80D780C3EF8BF0A4ACA8
:1000AE00F0EE8BF0A42CFCE435F0F8EF8AF0A42CE3
:1000BE00E5F038FCE433CB8DF0A42CFCE5F03BF8F6
:1000CE00EE8AF0A42CFCE5F038F8E433CF89F0A4E6
:1000DE002CFCE5F038CF3400CE89F0A42FFFE5F0EC
:1000EE003EFEE433C98DF0A42EFEE5F039CD8AF044
:1000FE00A42FFFE5F03EFEE43DFD33D0E0FB5007BC
:10010E000BBB000F020278EC2CFCEF33FFEE33FE3C
:06011E00ED33FD0202506A
:10012400020278EC5D046005E85904700302026E73
:10013400120239580460F6EC4860F2EC7004FDFEDB
:10014400FF22C860DB2481C85009C39860025006AE
:100154000202759850CAF582E9294B4A7005AB82B0
:1001640002026475F0007C1A7880C3EF9BEE9AED6E
:1001740099400DC3EF9BFFEE9AFEED99FDE842F026
:10018400DC23ACF0D0E0FFD0E0FED0E0FDAB822079
:10019400E7101BEB60BAEC2CFCEF33FFEE33FEED03
:1001A40033FD020250E803F830E705C0F075F000B3
:1001B400EF2FFFEE33FEED33FD40B830E7C280AAE7
:1001C40075F020800E75F010800575F0087D007EB6
:1001D400007F003392D530D5031202D8EC3340109F
:1001E400EF33FFEE33FEED33FDEC33FCD5F0ED22BF
:0E01F400E5F0247EA2D513CC92E7CDCEFF22FB
:10020200EDD2E7CD33EC3392D524814006E4FFFEF4
:10021200FDFC22FCE4CFCECDCC24E0501174FF8053
:10022200EDC3CC13CCCD13CDCE13CECF13CF0470F0
:07023200F030D5DE0202D816
:10023900E9D2E7C933E833F892D5EDD2E7CD33EC0B
:0702490033FC5002B2D52284
:10025000EC30E7100FBF000C0EBE00080DBD00040F
:100260000BEB6014A2D5EB13FCED92E7FD2274FFBB
:10027000FCFDFEFF22E480F8A2D574FF13FC7D8014
:03028000E480EF28
:03000000020446B1
:0C044600787FE4F6D8FD7581160202E60E
:10028300BC000BBE0029EF8DF084FFADF022E4CC5F
:10029300F875F008EF2FFFEE33FEEC33FCEE9DEC28
:1002A300984005FCEE9DFE0FD5F0E9E4CEFD22ED6E
:1002B300F8F5F0EE8420D21CFEADF075F008EF2FB8
:1002C300FFED33FD4007985006D5F0F222C398FDA9
:0502D3000FD5F0EA2246
:0E02D800C3E49FFFE49EFEE49DFDE49CFC2237
:00000001FF
