:10008E003F065B4F666D7D077F6F777C395E7971BA
:01009E000061
:0B00B900EF1FAC0670011E4C70F62219
:10000300E4F50975B00FAFB0EF640F60597FE87E78
:10001300031200B9AFB0EF640F604B75B00FAFB010
:10002300EF24F5601024FE6011146013240770128E
:10003300E4F508800D7508018008750802800375D2
:10004300080375B0F0AFB0EF2450600C24E0600CEF
:1000530024F0600C2470800E7404800674088002FF
:10006300740C2508F508AF09EF3395E0FEC3EF9450
:1000730032EE648094805012AFB0EF64F0600B7F77
:0A008300647E001200B9050980DC5C
:01008D002250
:0E009F00120003E50890008E93F4F58080F2C5
:030000000200AD4E
:0C00AD00787FE4F6D8FD75810902009F01
:00000001FF
