:0302F80001086496
:1001B50012025212026DE50875F06484FD7C007F21
:1001C500011201497F057E0012000EE50875F00A4F
:1001D5008475F00A84E5F0FD7C007F021201497FF9
:1001E500057E0012000EE50875F00A84E5F0FD7C39
:0F01F500007F031201497F057E0012000E80B7C4
:03002300020026B2
:10002600C0E0C0F0C083C082C0D075D000C000C0A0
:1000360001C002C003C004C005C006C00730985CFA
:10004600C298859909E50924D0B40900504E90005C
:100056006275F003A4C58325F0C58373020091027F
:10006600007D02008202008702008C0200960200D8
:100076009802009A0200981202C280201202CB80D7
:100086001B1202DD80161202EF80111202B9800CDB
:10009600800280051202828003120295D007D006E4
:1000A600D005D004D003D002D001D000D0D0D08269
:0700B600D083D0F0D0E0324E
:03000B00020204EA
:10020400C0E0C0D0758A66758CFC050AE50A646492
:100214007002F50AE50AD395085004D294D295E504
:0F0224000AD395084004C294C295D0D0D0E032DE
:1002520053877F75985053890F438920758BFD759D
:0B0262008DFDC2ABD28ED2ACD2AF2219
:080003008F993099FDC299228A
:1002A8003F065B4F666D7D077F6F777C395E79719E
:0102B8000045
:10014900EFB40800504D900156F828287302016E4B
:1001590002017202017A02017E02018602018A020B
:100169000192020196C2A28002D2A2C2A3C2A480B5
:1001790022C2A28002D2A2D2A3C2A48016C2A280A5
:1001890002D2A2C2A3D2A4800AC2A28002D2A2D25F
:10019900A3D2A474A82DF58274023CF583E493F5E7
:0C01A900807F017E0012000EE4F5802231
:10000E00EF1FAC0670011E4C600A7D027CC7DCFE41
:04001E00DDFC80EC99
:0100220022BB
:10026D005389F0438901758A66758CFCC28DD28CD9
:05027D00D2A9D2AF225E
:0302FB00010B6490
:0902B900C290C291C292C29322CC
:0902C200D290C291D292C29322A3
:0902CB00C290D291C292D293229A
:0902D400D290C291D292D2932281
:0902DD00D290C291C292D2932288
:0902E600D290D291D292C293226F
:0902EF00C290D291D292C2932276
:100282007405250BF50BC394647480948040037548
:030292000B6422D8
:1002950074FB250BF50BD39400748094805003E414
:0302A500F50B2234
:1002330020A0031202DD20A1031202EF30A006303A
:0F024300A1031202C220A00620A1031202B922B9
:030000000200BD3E
:0C00BD00787FE4F6D8FD75810B02010489
:1000C9000201B5E493A3F8E493A34003F68001F297
:1000D90008DFF48029E493A3F85407240CC8C33338
:1000E900C4540F4420C8834004F456800146F6DF07
:1000F900E4800B01020408102040809002F8E47E9D
:10010900019360BCA3FF543F30E509541FFEE493FB
:10011900A360010ECF54C025E060A840B8E493A3C2
:10012900FAE493A3F8E493A3C8C582C8CAC583CAED
:10013900F0A3C8C582C8CAC583CADFE9DEE780BEA5
:0102FE0000FF
:00000001FF
