:0400190002300000B1
:10000300759850758920758780758DFA758BFAD22E
:06001300ACD2AFD28E2238
:0600DF008B328A338934E4
:1000E500E4FFEFC39401748094805018AB32AA33B7
:1000F500A9348F827583001200B2F5993099FDC23B
:04010500990F80DEF0
:0101090022D3
:10010A00120003E508FD7C006401700CF590FB7A8F
:10011A000079081200DF80EBED64024C70E57590FF
:0B012A0001FB7A0079081200DF80D88A
:03002300020135A2
:07013500C0D075D000C00727
:06013C00AF998F08C29884
:05014200D007D0D0320F
:03000000020026D5
:0C002600787FE4F6D8FD75813402006D8F
:1000B200BB010CE58229F582E5833AF583E0225003
:1000C20006E92582F8E622BBFE06E92582F8E2224D
:0D00D200E58229F582E5833AF583E4932267
:1000320002010AE493A3F8E493A34003F68001F2D9
:1000420008DFF48029E493A3F85407240CC8C333CF
:10005200C4540F4420C8834004F456800146F6DF9E
:10006200E4800B0102040810204080900019E47E15
:10007200019360BCA3FF543F30E509541FFEE49393
:10008200A360010ECF54C025E060A840B8E493A35A
:10009200FAE493A3F8E493A3C8C582C8CAC583CA85
:1000A200F0A3C8C582C8CAC583CADFE9DEE780BE3D
:01001D0000E2
:00000001FF
