:1003DD0041542B43495053454E443D302C39004137
:1003ED00540041542B43574D4F44453D3300415428
:1003FD002B43575341503D225052454348494E22BD
:10040D002C227072656368696E313638222C313159
:10041D002C300041542B43495041503D223139324B
:10042D002E3136382E342E32220041542B52535455
:10043D000041542B4349504D55583D310041542BEB
:10044D004349505345525645523D312C3830383082
:01045D00009E
:060728000144000108007D
:1006E900759850758920758780758DFA858D8BC2AF
:0606F900ACD2AFD28E224C
:0E06FF00C2ACC2998F993099FDC299D2AC223B
:10050F008B4A8A4B894CAB4AAA4BA94C1201EBFF81
:10051F0060171206FF7F057E0012070D7401254C30
:10052F00F54CE4354BF54B80DD7F057E0012070D52
:10053F007F0D1206FF7F057E0012070D7F0A120640
:08054F00FF7FE87E03020003B8
:100557008B478A4889497BFF7A0379DD12050FAB00
:1005670047AA48A9491201EBFF60171206FF7F054A
:100577007E0012070D74012549F549E43548F54811
:1005870080DD7F057E0012070D7F0A1206FF7E00C1
:030597000200035C
:10059A00D2A5D2A67BFF7A0379EC12050F7BFF7AEC
:1005AA000379EF12050F7BFF7A0379FB12050F7BA4
:1005BA00FF7A04792012050F7BFF7A047937120536
:1005CA000F7BFF7A04793E12050F7BFF7A04794A82
:0305DA0002050F08
:1002AF00E4FBFA1204C37C007D0A120204AA06AB17
:1002BF0007C3EA64809480500575092D8003750982
:1002CF00207C277D10AF03AE0212026BEF2430F5B6
:1002DF000A7C277D10AF03AE0212026B7E037FE80C
:1002EF00CFCDCFCECCCE12026BEF2430F50B7C03EB
:1002FF007DE8AF03AE0212026B7E007F64CFCDCFDD
:10030F00CECCCE12026BEF2430F50C750D2E7C0087
:10031F007D64AF03AE0212026B7E007F0ACFCDCF9A
:10032F00CECCCE12026BEF2430F50EAE02AF037CB3
:10033F00007D0A12026BED2430F50F751043E4F5C2
:01034F00119C
:01035000228A
:1005DD00E4F545F546D2A2D2A1D2A0D2A31206E9E6
:1005ED0012059AD2AC0546E54670020545AE45FFAB
:1005FD007C007D0A120216ED4C700EB2A21202AFF3
:10060D007B007A0079091205577F0A7E00120003DC
:02061D0080D388
:0300230002045E76
:09045E00C0E0C0D075D000C00060
:10046700309852C29874122508F8A699E512B42B51
:100477000405088003750800E508640A7037F50865
:10048700E512642B702FE513B4492AE514B45025FF
:10049700E515B44420E51B24BE601024F660102443
:1004A700FA6010240C700EC2A0800AD2A08006C287
:0504B700A38002D2A3A6
:0704BC00D000D0D0D0E032E7
:0B070D00EF1FAC0670011E4C70F622BE
:10000300D3EF9400EE940040147D727C00ED1D70DC
:0D001300011CED4C70F7EF1F70E61E80E33E
:0100200022BD
:1006CB00D3EF9400EE940040147D6E7C00ED1D7012
:0D06DB00011CED4C70F7EF1F70E61E80E370
:0106E80022EF
:10069F00C2B77F467E00EF1FAC0670011E4C70F68E
:1006AF00D2B7E4FEFF30B7110FBF00010ED3EF94A6
:0B06BF0088EE941340EF7F00227F01C3
:0106CA00220D
:0C061F0012069F7F017E001206CB7FCCEC
:10062B00E4FBFAC2B7054AE54A70020549EF13929B
:10063B00B7754900754A06E54A154AAC497002156B
:10064B00494C70F3D2B7EFC313FF0BBB00010AEB9E
:05065B0064084A70CEA6
:010660002277
:100661007D087C00C2B70FBF0000D2B70FBF0000EA
:100671000FBF0000A2B7E433C43333335480FBE926
:10068100C3134BF97E007F04EF1FAA0670011E4AB7
:0D06910070F6ED1D70011CED4C70C9AF013D
:01069E002239
:0807180012061F7F4402062BAC
:0807200012061F7FBE02062B2A
:1004C300E4F5471207181207201206618F48120637
:1004D30061EFD39407400B6307FF6348FFE4F547DD
:1004E3008003754701EFFEE548FFAD07AC06EC124C
:1004F3000131E4FBFA7920783F12002612016AE504
:0B05030047600122C3E49FFFE49EFE5E
:01050E0022CA
:10002600EC4D6011E8497017ED33EC3304600DE4D4
:10003600FCFFFEFD22E933E8330470F80201D61214
:1000460001A158046009E4CC248150062850090215
:1000560001E02840030201DDC0E0EB4A7044B980AC
:1000660006D0E0FB0201CCEF4E701CBD8008EBFF12
:10007600EAFEE9FD80EBE98DF0A4FEE5F002010F52
:10008600E9CDF9EAFEEBFFEF89F0A4FCE5F0CE89B5
:10009600F0A42EFFE435F0CD89F0A42DFEE435F072
:1000A6008067EF4E7005BD80D780C3EF8BF0A4ACA0
:1000B600F0EE8BF0A42CFCE435F0F8EF8AF0A42CDB
:1000C600E5F038FCE433CB8DF0A42CFCE5F03BF8EE
:1000D600EE8AF0A42CFCE5F038F8E433CF89F0A4DE
:1000E6002CFCE5F038CF3400CE89F0A42FFFE5F0E4
:1000F6003EFEE433C98DF0A42EFEE5F039CD8AF03C
:10010600A42FFFE5F03EFEE43DFD33D0E0FB5007B3
:100116000BBB000F0201E0EC2CFCEF33FFEE33FECD
:06012600ED33FD0201B8FB
:10012C0075F020800E75F010800575F0087D007E4E
:10013C00007F003392D530D5031202A1EC3340106E
:10014C00EF33FFEE33FEED33FDEC33FCD5F0ED2257
:0E015C00E5F0247EA2D513CC92E7CDCEFF2293
:10016A00EDD2E7CD33EC3392D524814006E4FFFE8D
:10017A00FDFC22FCE4CFCECDCC24E0501174FF80EC
:10018A00EDC3CC13CCCD13CDCE13CECF13CF047089
:07019A00F030D5DE0202A1E6
:1001A100E9D2E7C933E833F892D5EDD2E7CD33ECA4
:0701B10033FC5002B2D5221D
:1001B800EC30E7100FBF000C0EBE00080DBD0004A8
:1001C8000BEB6014A2D5EB13FCED92E7FD2274FF54
:1001D800FCFDFEFF22E480F8A2D574FF13FC7D80AD
:0301E800E480EFC1
:03000000020351A7
:0C035100787FE4F6D8FD75814C0203981B
:1001EB00BB010689828A83E0225002E722BBFE0212
:0901FB00E32289828A83E4932245
:10020400EF8DF0A4A8F0CF8CF0A428CE8DF0A42E0E
:02021400FE22C8
:10021600BC000BBE0029EF8DF084FFADF022E4CCCC
:10022600F875F008EF2FFFEE33FEEC33FCEE9DEC95
:10023600984005FCEE9DFE0FD5F0E9E4CEFD22EDDB
:10024600F8F5F0EE8420D21CFEADF075F008EF2F25
:10025600FFED33FD4007985006D5F0F222C398FD16
:050266000FD5F0EA22B3
:10026B00C2D5EC30E709B2D5E4C39DFDE49CFCEEAE
:10027B0030E715B2D5E4C39FFFE49EFE120216C30E
:10028B00E49DFDE49CFC800312021630D507C3E409
:06029B009FFFE49EFE221D
:0E02A100C3E49FFFE49EFEE49DFDE49CFC226E
:10035D000205DDE493A3F8E493A34003F68001F2D4
:10036D0008DFF48029E493A3F85407240CC8C333A1
:10037D00C4540F4420C8834004F456800146F6DF70
:10038D00E4800B0102040810204080900728E47ED1
:10039D00019360BCA3FF543F30E509541FFEE49365
:1003AD00A360010ECF54C025E060A840B8E493A32C
:1003BD00FAE493A3F8E493A3C8C582C8CAC583CA57
:1003CD00F0A3C8C582C8CAC583CADFE9DEE780BE0F
:01072E0000CA
:00000001FF
