:1001C5000908596F752043616E20001113303132D3
:0E01D50033343536373839414243444546000D
:10015B001201E4E4F512F524C3E5249408748094A9
:10016B0080500E74082524F8E6FF12020705248040
:10017B00E7120003E51260F9E4F5127FC01201FDEE
:0C018B0074132511F8E6FF12020780E54E
:1000030075900FAF90EF640F700302008E1201978B
:10001300AF90EF640F605475120175900F12019742
:10002300AF90EF24F5601024FE60111460132407D1
:100033007012E4F511800D751101800875110280AD
:10004300037511037590F0120197AF90EF24506080
:100053000C24E0600C24F0600C2470800E74048087
:100063000674088002740C2511F511AF25EF339542
:10007300E0FEC3EF9432EE64809480500EAF90EFB5
:0B00830064F06007120197052580E083
:01008E00224F
:100197007F01EFD394007480948040217E26EED3B4
:1001A70094007480948040127D82EDD39400748013
:0D01B700948040031D80F31E80E41F80D55E
:0101C4002218
:10011B00C2A58F807F017E0012012CD2A77F057EA6
:01012B0000D3
:10012C00D3EF9400EE940040257DC7EDD39400747A
:10013C0080948040127C01ECD394007480948040B5
:0E014C00031C80F31D80E4EF1F70D51E80D2CF
:01015A002282
:0A01FD00C2A7C2A612011BC2A7226E
:0A020700C2A7D2A612011BC2A72253
:1001E4007F381201FD7F0C1201FD7F061201FD7F95
:0901F400011201FD7F800201FDF2
:0300000002008F6C
:0C008F00787FE4F6D8FD7581250200D6CC
:10009B0002015BE493A3F8E493A34003F68001F21F
:1000AB0008DFF48029E493A3F85407240CC8C33366
:1000BB00C4540F4420C8834004F456800146F6DF35
:1000CB00E4800B01020408102040809001C5E47EFF
:1000DB00019360BCA3FF543F30E509541FFEE4932A
:1000EB00A360010ECF54C025E060A840B8E493A3F1
:1000FB00FAE493A3F8E493A3C8C582C8CAC583CA1C
:10010B00F0A3C8C582C8CAC583CADFE9DEE780BED3
:0101E300001B
:00000001FF
