:10036700C0F9A4B0999282F880908883C6A1868E3E
:10037700004079243019120278001008034621063C
:020387000E0066
:0A03D800012500012400021E0000B0
:0B03CD00EF1FAC0670011E4C70F62202
:06023B008F0A8C0B8D0CF4
:10024100780D7C007D007BFF7A0379677E007F114A
:100251001200DEE50A24FE601014601714601E24EB
:10026100037022C2A4D2A58004D2A4C2A5D2A6D270
:10027100A78012D2A4D2A5C2A6D2A78008D2A4D2A6
:10028100A5D2A6C2A7740D250CF8E6F5807F647E81
:04029100000203CD97
:060295008F0A8C0B8D0C9A
:10029B00780D7C007D007BFF7A0379787E007F11DF
:1002AB001200DEE50A24FE601014601714601E2491
:1002BB00037022C2A4D2A58004D2A4C2A5D2A6D216
:1002CB00A78012D2A4D2A5C2A6D2A78008D2A4D24C
:1002DB00A5D2A6C2A7740D250CF8E6F5807F647E27
:0402EB00000203CD3D
:0E03BF00758901758CFC758A18D2A9D2AF22FF
:08000300E4F525F524C28C226E
:10032F00AEB05306F0EE64F06028E51F451E70274F
:10033F00F51E751F01EE2490601524C0600E24E099
:10034F00600724F070117F01227F02227F03227F3A
:07035F000422E4F51EF51F66
:010366002274
:1003890012032F7E00EF6018EE7015EF24FE600A4D
:1003990014600A24027009D28C22C28C2212000332
:0103A9002231
:1002EF008F088D09E50875F00A84E5F0FD7C007F25
:1002FF000412023BE50875F00A84FD7C007F0312AF
:10030F00023BE50975F00A84E5F0FD7C007F0212DF
:10031F000295E50975F00A84FD7C007F0102023B1E
:1003AA00E4F58075B0FF1203BF120389AD24AF25AF
:0503BA001202EF80F4C7
:03000B0002011AD5
:10011A00C0E0C0F0C083C082C0D075D000C000C0AB
:0D012A0001C002C003C004C005C006C0072C
:10013700758CFC758A180521E521700205200523B9
:10014700E52370020522E521B4E81BE520B4031678
:100157007520007521000525D3E525943B7480940F
:10016700804003752500AE22AF23E4FCFD7B607A57
:10017700EAF9F8C31201047014F522F5230524D314
:0D018700E524943B748094804003752400AF
:10019400D007D006D005D004D003D002D001D000BF
:0B01A400D0D0D082D083D0F0D0E03269
:030000000201AF4B
:0C01AF00787FE4F6D8FD7581250201F68A
:10000E00E709F608DFFA8046E709F208DFFA803ED4
:10001E0088828C83E709F0A3DFFA8032E309F608C1
:10002E00DFFA8078E309F208DFFA807088828C8329
:10003E00E309F0A3DFFA806489828A83E0A3F608DD
:10004E00DFFA805889828A83E0A3F208DFFA804CB7
:10005E0080D280FA80C680D4806980F2803380108E
:10006E0080A680EA809A80A880DA80E280CA8033F7
:10007E0089828A83ECFAE493A3C8C582C8CCC5836F
:10008E00CCF0A3C8C582C8CCC583CCDFE9DEE7803F
:10009E000D89828A83E493A3F608DFF9ECFAA9F0BE
:1000AE00EDFB2289828A83ECFAE0A3C8C582C8CC14
:1000BE00C583CCF0A3C8C582C8CCC583CCDFEADE2D
:1000CE00E880DB89828A83E493A3F208DFF980CC8F
:1000DE0088F0EF60010E4E60C388F0ED2402B40488
:1000EE000050B9F582EB2402B4040050AF2323452F
:0600FE00822390005E73F6
:10010400EB9FF5F0EA9E42F0E99D42F0EC6480C872
:0601140064809845F02212
:1001BB000203AAE493A3F8E493A34003F68001F2AD
:1001CB0008DFF48029E493A3F85407240CC8C33345
:1001DB00C4540F4420C8834004F456800146F6DF14
:1001EB00E4800B01020408102040809003D8E47EC9
:1001FB00019360BCA3FF543F30E509541FFEE49309
:10020B00A360010ECF54C025E060A840B8E493A3CF
:10021B00FAE493A3F8E493A3C8C582C8CAC583CAFA
:10022B00F0A3C8C582C8CAC583CADFE9DEE780BEB2
:0103E200001A
:00000001FF
