:050736000000000000BE
:08071D000613C9E3CACFB6C8F8
:10070B001206D91206F412044F7FE87E031206BBC1
:02071B0080F16B
:04044F008E088F097B
:10045300780A7C007D007BFF7A0779367E007F0572
:10046300120390C3E50864809480501875992D3069
:1004730099FDC299E5091509700215086309FF631F
:1004830008FF800875992B3099FDC299AC08AD0916
:10049300EC1202068F128E118D108C0FE4FFFE7D7D
:1004A300C87C40AB12AA11A910A80F1200FBE4FBF1
:1004B300FAF9783F12000A12023F8E088F09AE083C
:1004C300AF097C277D101203B68F0AAE08AF097CF3
:1004D300277D101203B67E037FE8CFCDCFCECCCEDF
:1004E3001203B68F0BAE08AF097C037DE81203B687
:1004F3007E007F64CFCDCFCECCCE1203B68F0CAEB1
:1005030008AF097C007D641203B67E007F0ACFCD5D
:10051300CFCECCCE1203B68F0DAE08AF097C007DD3
:100523000A1203B68D0EE50A2430F5993099FDC2FF
:1005330099E50B2430F5993099FDC299E50C2430E7
:10054300F5993099FDC29975992E3099FDC299E5B7
:100553000D2430F5993099FDC299E50E2430F599B3
:100563003099FDC299E4FF74132FF8E6F599309999
:0F057300FDC2990FBF06F07599213099FDC2990D
:010582002256
:1006D90053877F75985053890F438920758BFA7515
:0B06E9008DFAC2ABD28ED2AFD2AC2291
:1006BB00D3EF9400EE940040147D6E7C00ED1D7022
:0D06CB00011CED4C70F7EF1F70E61E80E380
:0106D80022FF
:10068F00C2B77F467E00EF1FAC0670011E4C70F69E
:10069F00D2B7E4FEFF30B7110FBF00010ED3EF94B6
:0B06AF0088EE941340EF7F00227F01D3
:0106BA00221D
:0C060F0012068F7F017E001206BB7FCC1C
:10061B00E4FBFAC2B7050AE50A70020509EF13926B
:10062B00B7750900750A06E50A150AAC09700215BB
:10063B00094C70F3D2B7EFC313FF0BBB00010AEBEE
:05064B0064084A70CEB6
:010650002287
:100651007D087C00C2B70FBF0000D2B70FBF0000FA
:100661000FBF0000A2B7E433C43333335480FBE936
:10067100C3134BF97E007F04EF1FAA0670011E4AC7
:0D06810070F6ED1D70011CED4C70C9AF014D
:01068E002249
:0807260012060F7F4402061BBE
:08072E0012060F7FBE02061B3C
:1006F400E4FFFE12072612072E1206518F08120677
:0607040051EFFEE508FFC5
:01070A0022CC
:100003000202ABE86480F8E933E83360110460F07E
:10001300ED33EC337009E8FCE9FDEAFEEBFF220463
:1000230060DED3EB9FEA9EE99DE8C2E78CF0C2F75E
:1000330095F0400CE8CCF8E9CDF9EACEFAEBCFFB2A
:1000430012027685D0F05804700320D5B3E804700B
:10005300075002B2D50202B592D5EC0460F7E4CCA6
:10006300C0E0C398F8603B94186008400DD0E0FBF3
:1000730002028DE4FBFAC9FC8028E830E406E4C9F7
:10008300FBE4CAFCE830E305E4C9CACBFCE8540747
:100093006010F8C3E913F9EA13FAEB13FBEC13FC52
:1000A300D8F130F52FC3E49CFCEF9BFFEE9AFEEDF5
:1000B30099FDD0E0FBEF4E4D4C701222DB030202A0
:1000C300B2EC2CFCEF33FFEE33FEED33FDED30E706
:1000D300EB02028DEF2BFFEE3AFEED39FDD0E0FB94
:1000E30050130BBB00030202B5ED13FDEE13FEEF3D
:0800F30013FFEC13FC02028D67
:1000FB00EC4D6011E8497017ED33EC3304600DE4FF
:10010B00FCFFFEFD22E933E8330470F80202AB1268
:10011B00027658046009E4CC248150062850090269
:10012B0002B52840030202B2C0E0EB4A7044B9802A
:10013B0006D0E0FB0202A1EF4E701CBD8008EBFF66
:10014B00EAFEE9FD80EBE98DF0A4FEE5F00201E4A7
:10015B00E9CDF9EAFEEBFFEF89F0A4FCE5F0CE89DF
:10016B00F0A42EFFE435F0CD89F0A42DFEE435F09C
:10017B008067EF4E7005BD80D780C3EF8BF0A4ACCA
:10018B00F0EE8BF0A42CFCE435F0F8EF8AF0A42C05
:10019B00E5F038FCE433CB8DF0A42CFCE5F03BF818
:1001AB00EE8AF0A42CFCE5F038F8E433CF89F0A408
:1001BB002CFCE5F038CF3400CE89F0A42FFFE5F00E
:1001CB003EFEE433C98DF0A42EFEE5F039CD8AF066
:1001DB00A42FFFE5F03EFEE43DFD33D0E0FB5007DE
:1001EB000BBB000F0202B5EC2CFCEF33FFEE33FE22
:0601FB00ED33FD02028D50
:1002010075F020800E75F010800575F0087D007E78
:10021100007F003392D530D5031203ECEC3340104C
:10022100EF33FFEE33FEED33FDEC33FCD5F0ED2281
:0E023100E5F0247EA2D513CC92E7CDCEFF22BD
:10023F00EDD2E7CD33EC3392D524814006E4FFFEB7
:10024F00FDFC22FCE4CFCECDCC24E0501174FF8016
:10025F00EDC3CC13CCCD13CDCE13CECF13CF0470B3
:07026F00F030D5DE0203ECC4
:10027600E9D2E7C933E833F892D5EDD2E7CD33ECCE
:0702860033FC5002B2D52247
:10028D00EC30E7100FBF000C0EBE00080DBD0004D2
:10029D000BEB6014A2D5EB13FCED92E7FD2274FF7E
:1002AD00FCFDFEFF22E480F8A2D574FF13FC7D80D7
:0302BD00E480EFEB
:0300000002058373
:0C058300787FE4F6D8FD7581180205CAE7
:1002C000E709F608DFFA8046E709F208DFFA803E20
:1002D00088828C83E709F0A3DFFA8032E309F6080D
:1002E000DFFA8078E309F208DFFA807088828C8375
:1002F000E309F0A3DFFA806489828A83E0A3F60829
:10030000DFFA805889828A83E0A3F208DFFA804C02
:1003100080D280FA80C680D4806980F280338010D9
:1003200080A680EA809A80A880DA80E280CA803342
:1003300089828A83ECFAE493A3C8C582C8CCC583BA
:10034000CCF0A3C8C582C8CCC583CCDFE9DEE7808A
:100350000D89828A83E493A3F608DFF9ECFAA9F009
:10036000EDFB2289828A83ECFAE0A3C8C582C8CC5F
:10037000C583CCF0A3C8C582C8CCC583CCDFEADE78
:10038000E880DB89828A83E493A3F208DFF980CCDA
:1003900088F0EF60010E4E60C388F0ED2402B404D3
:1003A0000050B9F582EB2402B4040050AF2323457A
:0603B0008223900310738C
:1003B600C2D5EC30E709B2D5E4C39DFDE49CFCEE62
:1003C60030E715B2D5E4C39FFFE49EFE1203FAC3DD
:1003D600E49DFDE49CFC80031203FA30D507C3E4D8
:0603E6009FFFE49EFE22D1
:0E03EC00C3E49FFFE49EFEE49DFDE49CFC2222
:10058F0002070BE493A3F8E493A34003F68001F270
:10059F0008DFF48029E493A3F85407240CC8C3336D
:1005AF00C4540F4420C8834004F456800146F6DF3C
:1005BF00E4800B010204081020408090071DE47EA8
:1005CF00019360BCA3FF543F30E509541FFEE49331
:1005DF00A360010ECF54C025E060A840B8E493A3F8
:1005EF00FAE493A3F8E493A3C8C582C8CAC583CA23
:1005FF00F0A3C8C582C8CAC583CADFE9DEE780BEDB
:0107250000D3
:1003FA00BC000BBE0029EF8DF084FFADF022E4CCE7
:10040A00F875F008EF2FFFEE33FEEC33FCEE9DECAF
:10041A00984005FCEE9DFE0FD5F0E9E4CEFD22EDF5
:10042A00F8F5F0EE8420D21CFEADF075F008EF2F3F
:10043A00FFED33FD4007985006D5F0F222C398FD30
:05044A000FD5F0EA22CD
:00000001FF
